{
  "_format": "hh-sol-artifact-1",
  "contractName": "ChainlinkPricing",
  "sourceName": "src/backend/contracts/ChainlinkPricing.sol",
  "abi": [
    {
      "inputs": [],
      "stateMutability": "nonpayable",
      "type": "constructor"
    },
    {
      "inputs": [
        {
          "internalType": "string",
          "name": "_network",
          "type": "string"
        },
        {
          "internalType": "string[]",
          "name": "_symbols",
          "type": "string[]"
        }
      ],
      "name": "getPrices",
      "outputs": [
        {
          "components": [
            {
              "internalType": "string",
              "name": "Network",
              "type": "string"
            },
            {
              "internalType": "string",
              "name": "Symbol",
              "type": "string"
            },
            {
              "internalType": "int256",
              "name": "Price",
              "type": "int256"
            },
            {
              "internalType": "uint256",
              "name": "Decimals",
              "type": "uint256"
            }
          ],
          "internalType": "struct ChainlinkPricing.Price[]",
          "name": "",
          "type": "tuple[]"
        }
      ],
      "stateMutability": "view",
      "type": "function"
    }
  ],
  "bytecode": "0x60806040523480156200001157600080fd5b50739326bfa02add2366b30bacb125260af641031331600060405162000037906200025b565b9081526020016040518091039020604051620000539062000272565b908152602001604051809103902060006101000a81548173ffffffffffffffffffffffffffffffffffffffff021916908373ffffffffffffffffffffffffffffffffffffffff160217905550736135b13325bfc4b00278b4abc5e20bbce2d6580e6000604051620000c4906200025b565b9081526020016040518091039020604051620000e090620002a0565b908152602001604051809103902060006101000a81548173ffffffffffffffffffffffffffffffffffffffff021916908373ffffffffffffffffffffffffffffffffffffffff1602179055507331f93da9823d737b7e44bdee0df389fe62fd1acd600060405162000151906200025b565b90815260200160405180910390206040516200016d9062000289565b908152602001604051809103902060006101000a81548173ffffffffffffffffffffffffffffffffffffffff021916908373ffffffffffffffffffffffffffffffffffffffff16021790555062000366565b6000620001ce600583620002b7565b9150620001db82620002c2565b600582019050919050565b6000620001f5600383620002b7565b91506200020282620002eb565b600382019050919050565b60006200021c600383620002b7565b9150620002298262000314565b600382019050919050565b600062000243600383620002b7565b915062000250826200033d565b600382019050919050565b60006200026882620001bf565b9150819050919050565b60006200027f82620001e6565b9150819050919050565b600062000296826200020d565b9150819050919050565b6000620002ad8262000234565b9150819050919050565b600081905092915050565b7f4b6f76616e000000000000000000000000000000000000000000000000000000600082015250565b7f4554480000000000000000000000000000000000000000000000000000000000600082015250565b7f534e580000000000000000000000000000000000000000000000000000000000600082015250565b7f4254430000000000000000000000000000000000000000000000000000000000600082015250565b610bdf80620003766000396000f3fe608060405234801561001057600080fd5b506004361061002b5760003560e01c80632aa0912714610030575b600080fd5b61004a600480360381019061004591906105cc565b610060565b604051610057919061088d565b60405180910390f35b60606000825167ffffffffffffffff8111156100a5577f4e487b7100000000000000000000000000000000000000000000000000000000600052604160045260246000fd5b6040519080825280602002602001820160405280156100de57816020015b6100cb610438565b8152602001906001900390816100c35790505b50905060005b835181101561042d57600080866040516100fe9190610876565b9081526020016040518091039020858381518110610145577f4e487b7100000000000000000000000000000000000000000000000000000000600052603260045260246000fd5b602002602001015160405161015a9190610876565b908152602001604051809103902060009054906101000a900473ffffffffffffffffffffffffffffffffffffffff1673ffffffffffffffffffffffffffffffffffffffff1663feaf968c6040518163ffffffff1660e01b815260040160a06040518083038186803b1580156101ce57600080fd5b505afa1580156101e2573d6000803e3d6000fd5b505050506040513d601f19601f820116820180604052508101906102069190610638565b5050509150506000811361024f576040517f08c379a0000000000000000000000000000000000000000000000000000000008152600401610246906108af565b60405180910390fd5b600080876040516102609190610876565b90815260200160405180910390208684815181106102a7577f4e487b7100000000000000000000000000000000000000000000000000000000600052603260045260246000fd5b60200260200101516040516102bc9190610876565b908152602001604051809103902060009054906101000a900473ffffffffffffffffffffffffffffffffffffffff1673ffffffffffffffffffffffffffffffffffffffff1663313ce5676040518163ffffffff1660e01b815260040160206040518083038186803b15801561033057600080fd5b505afa158015610344573d6000803e3d6000fd5b505050506040513d601f19601f8201168201806040525081019061036891906106af565b9050600060405180608001604052808981526020018886815181106103b6577f4e487b7100000000000000000000000000000000000000000000000000000000600052603260045260246000fd5b602002602001015181526020018481526020018360ff1681525090508085858151811061040c577f4e487b7100000000000000000000000000000000000000000000000000000000600052603260045260246000fd5b6020026020010181905250505050808061042590610a6c565b9150506100e4565b508091505092915050565b6040518060800160405280606081526020016060815260200160008152602001600081525090565b600061047361046e846108f4565b6108cf565b9050808382526020820190508285602086028201111561049257600080fd5b60005b858110156104dc57813567ffffffffffffffff8111156104b457600080fd5b8086016104c18982610563565b85526020850194506020840193505050600181019050610495565b5050509392505050565b60006104f96104f484610920565b6108cf565b90508281526020810184848401111561051157600080fd5b61051c8482856109f9565b509392505050565b600082601f83011261053557600080fd5b8135610545848260208601610460565b91505092915050565b60008151905061055d81610b4d565b92915050565b600082601f83011261057457600080fd5b81356105848482602086016104e6565b91505092915050565b60008151905061059c81610b64565b92915050565b6000815190506105b181610b92565b92915050565b6000815190506105c681610b7b565b92915050565b600080604083850312156105df57600080fd5b600083013567ffffffffffffffff8111156105f957600080fd5b61060585828601610563565b925050602083013567ffffffffffffffff81111561062257600080fd5b61062e85828601610524565b9150509250929050565b600080600080600060a0868803121561065057600080fd5b600061065e888289016105a2565b955050602061066f8882890161054e565b94505060406106808882890161058d565b93505060606106918882890161058d565b92505060806106a2888289016105a2565b9150509295509295909350565b6000602082840312156106c157600080fd5b60006106cf848285016105b7565b91505092915050565b60006106e483836107fd565b905092915050565b60006106f782610961565b6107018185610984565b93508360208202850161071385610951565b8060005b8581101561074f578484038952815161073085826106d8565b945061073b83610977565b925060208a01995050600181019050610717565b50829750879550505050505092915050565b61076a816109c2565b82525050565b600061077b8261096c565b6107858185610995565b9350610795818560208601610a08565b61079e81610b13565b840191505092915050565b60006107b48261096c565b6107be81856109b7565b93506107ce818560208601610a08565b80840191505092915050565b60006107e76014836109a6565b91506107f282610b24565b602082019050919050565b6000608083016000830151848203600086015261081a8282610770565b915050602083015184820360208601526108348282610770565b91505060408301516108496040860182610761565b50606083015161085c6060860182610867565b508091505092915050565b610870816109cc565b82525050565b600061088282846107a9565b915081905092915050565b600060208201905081810360008301526108a781846106ec565b905092915050565b600060208201905081810360008301526108c8816107da565b9050919050565b60006108d96108ea565b90506108e58282610a3b565b919050565b6000604051905090565b600067ffffffffffffffff82111561090f5761090e610ae4565b5b602082029050602081019050919050565b600067ffffffffffffffff82111561093b5761093a610ae4565b5b61094482610b13565b9050602081019050919050565b6000819050602082019050919050565b600081519050919050565b600081519050919050565b6000602082019050919050565b600082825260208201905092915050565b600082825260208201905092915050565b600082825260208201905092915050565b600081905092915050565b6000819050919050565b6000819050919050565b600060ff82169050919050565b600069ffffffffffffffffffff82169050919050565b82818337600083830152505050565b60005b83811015610a26578082015181840152602081019050610a0b565b83811115610a35576000848401525b50505050565b610a4482610b13565b810181811067ffffffffffffffff82111715610a6357610a62610ae4565b5b80604052505050565b6000610a77826109cc565b91507fffffffffffffffffffffffffffffffffffffffffffffffffffffffffffffffff821415610aaa57610aa9610ab5565b5b600182019050919050565b7f4e487b7100000000000000000000000000000000000000000000000000000000600052601160045260246000fd5b7f4e487b7100000000000000000000000000000000000000000000000000000000600052604160045260246000fd5b6000601f19601f8301169050919050565b7f436861696e6c696e6b207072696365203c3d2030000000000000000000000000600082015250565b610b56816109c2565b8114610b6157600080fd5b50565b610b6d816109cc565b8114610b7857600080fd5b50565b610b84816109d6565b8114610b8f57600080fd5b50565b610b9b816109e3565b8114610ba657600080fd5b5056fea26469706673582212208cd964bbdf04a58157fd8ed1e7fd7273f3440d629f935ed06aad9c872385a71464736f6c63430008040033",
  "linkReferences": {},
  "deployedLinkReferences": {}
}